:1000000000400020B1AF0000EDAF0000F5AF0000F0
:10001000EDAF0000EDAF0000EDAF0000000000000C
:10002000000000000000000000000000EDAF000034
:10003000EDAF000000000000EDAF0000EDAF0000EC
:10004000798C000021AF00002FAF00003DAF000011
:100050004DAF0000EDAF0000B98400006D840000DA
:10006000B1890000B9770000C9770000B19C000099
:10007000BF9C00000173000025A600006D910000E8
:100080009D910000EDAF0000B98000001D720000DE
:1000900085920000A5920000C1980000D998000048
:1000A000B5910000D59100001D9200003D92000026
:1000B00045A900006DA90000EDAF0000EDAF000004
:1000C000EDAF0000496F0000217000006D7400006A
:1000D00091980000A99800000D6E0000EDAF00009F
:1000E000CD9C0000C983000085910000658300005D
:1000F000B98600006D6700006D650000000000001B
:1001000000000000000000000000000000000000EF
:1001100000000000000000000000000000000000DF
:10012000EDAF0000EDAF0000EDAF0000EDAF00005F
:10013000EDAF0000EDAF0000EDAF0000EDAF00004F
:10018000FFFFFFFFFFFFFFFFFFFFFFFFFFFFFFFF7F
:1001900003329CA77F000000FFFFFFFFFFFFFFFF70
:1001A00010B5054C237833B9044B13B10448AFF3B1
:1001B00000800123237010BD001404200000000003
:1001C000F449010008B5034B1BB103490348AFF3E1
:1001D000008008BD0000000004140420F449010060
:1001E000154B002B08BF134B9D46A3F5803A002109
:1001F0008B460F461348144A121A0BF079FD0F4B29
:10020000002B00D098470E4B002B00D098470020C1
:10021000002104000D000D48002802D00C480EF00B
:10022000B7FE0BF0C7F92000290005F0FBFC0BF02E
:10023000B1F900BF000008000040002000000000ED
:100240000000000000140420841D042091EF000031
:10025000EDFF000080B582B000AF786039603B6888
:10026000002B02D14FF0FF3311E03B689B681B6805
:100270003968786898470346002B02D04FF0FF3367
:1002800005E07B681B683A6892689A60002318460C
:100290000837BD4680BD80B582B000AF78607B680E
:1002A0009B68DB6878689847034618460837BD4660
:1002B00080BD90B585B000AFF860B96011461A46B0
:1002C0000B46FB711346BB71FB689B685C68BB798E
:1002D000FA79B968F868A047034618461437BD464E
:1002E00090BD90B585B000AFF860B96011461A4670
:1002F0000B46FB711346BB71FB689B689C68BB791E
:10030000FA79B968F868A047034618461437BD461D
:1003100090BD80B582B000AF786039603B68002B3B
:1003200002D14FF0FF3311E03B685B681B6839680E
:10033000786898470346002B02D04FF0FF3305E062
:100340007B681B683A6852685A6000231846083771
:10035000BD4680BD80B582B000AF786039607B68F3
:100360005B689B6839687868984703461846083781
:10037000BD4680BD80B582B000AF78607B685B68A9
:10038000DB6878689847034618460837BD4680BD45
:1003900080B582B000AF786039607B685B689B692C
:1003A000396878689847034618460837BD4680BDC7
:1003B00080B582B000AF786039607B685B68DB69CC
:1003C000396878689847034618460837BD4680BDA7
:1003D00080B584B000AF786039602C2101200BF02B
:1003E0009BF80346BB60BB68002B02D16FF00B0388
:1003F00074E0BB683A6811461846FFF72BFFF860B7
:10040000FB68002B65DB3B681A7CBB681A71B86817
:1004100000F0C9F8F860FB68002B4BDBC82002F045
:100420001BF93B68D3F8113000221A461146B86810
:1004300000F0EBF8F860FB68002B3DDB3B68D3F87D
:100440001520002111465A7E002362F307031A4645
:10045000B86800F01FF9F860FB68002B2EDB3B68E2
:10046000D3F81A20002111469A7F002362F3070374
:100470001A46B86800F06AF9F860FB68002B1FDBC9
:100480003B68DA7F93F8201009020A4393F8213081
:100490001B041A43002362F317031946B86800F0DF
:1004A000C5F9F860FB68002B0CDB7B68BA681A6042
:1004B000002313E000BF06E000BF04E000BF02E03D
:1004C00000BF00E000BFBB681B681846FFF7E3FEF3
:1004D00000E000BFB8680BF099F8FB6818461037C9
:1004E000BD4680BD80B584B000AFF8607A601A4622
:1004F0000B46FB7213463B817B68002B05D03B8982
:10050000132B02D8FB7A122B02D96FF0150315E0DA
:10051000FB68FA7A5A71FB6806333A89796818469B
:100520000BF00EFBFB681868FB68591D3B89DBB2BA
:100530000133DAB20123FFF7BCFE03461846103739
:10054000BD4680BD80B586B000AFF8607A601A46BF
:100550000B46FB7213463B817B68002B05D03B8921
:10056000132B02D8FB7A122B02D96FF0150316E079
:10057000FB68186807F10B0100230122FFF799FEC1
:1005800078617B69002B01DA7B6908E0FB681868F9
:100590003B89DAB201237968FFF7A3FE03461846C8
:1005A0001837BD4680BD80B584B000AF7860BF23EA
:1005B000FB737B68002B02D16FF0150308E07B68AA
:1005C000186807F10F0101230122FFF772FE0346AD
:1005D00018461037BD4680BD80B582B000AF786048
:1005E0007B68002B01D100230BE07B681B68184659
:1005F000FFF751FE7B6800221A6078680BF006F85E
:10060000002318460837BD4680BD90B585B000AFC1
:10061000786039607B68002B02D16FF0150335E0FC
:100620003B781946802005F055FF0346DCB27B7805
:100630001946402005F04EFF0346DBB22343DCB2EF
:10064000BB781946202005F045FF0346DBB2234363
:10065000DCB2FB781946012005F03CFF0346DBB213
:100660002343DBB2FB7207F10B02012307217868F9
:10067000FFF738FFF860FB68002B01DAFB6805E044
:100680007B6819333A4610681860002318461437FF
:10069000BD4690BD90B589B000AFF8603B1D83E8C2
:1006A0000600FB68002B02D16FF015034AE03B798E
:1006B0001946802005F00EFF0346DCB24FF0FF33F1
:1006C000FB61FB699B07FB61FB695B0EFB61FB69DF
:1006D0007A791146184605F0FDFE0346DBB2234346
:1006E000DCB2BB791946102005F0F4FE0346DBB2FC
:1006F0002343DCB2FB791946022005F0EBFE0346EA
:10070000DBB22343DCB23B7A1946012005F0E2FE5E
:100710000346DBB22343DBB2FB7507F1170201236B
:100720000821F868FFF7DEFEB861BB69002B01DA2B
:10073000BB6907E0FB681D333A1D10681860127929
:100740001A71002318462437BD4690BD90B58BB072
:1007500000AFF8603B1D83E80600FB68002B02D168
:100760006FF015035EE03B791946802005F0B2FE7C
:100770000346DCB27B791946402005F0ABFE034608
:10078000DBB22343DCB24FF0FF337B627B6A9B0713
:100790007B627B6A9B0E7B627B6ABA791146184644
:1007A00005F098FE0346DBB22343DCB24FF0FF3383
:1007B0003B623B6A9B073B623B6A1B0F3B623B6AA7
:1007C000FA791146184605F085FE0346DBB223434D
:1007D000DCB24FF0FF33FB61FB699B07FB61FB69F8
:1007E0009B0FFB61FB693A7A1146184605F072FED1
:1007F0000346DBB22343DBB2FB7507F1170201238B
:100800000921F868FFF76EFEB861BB69002B01DAB9
:10081000BB6907E0FB6822333A1D10681860127943
:100820001A71002318462C37BD4690BD90B589B08B
:1008300000AF786039607B68002B02D16FF0150340
:100840004CE04FF0FF33FB61FB699B07FB61FB69E9
:100850001B0EFB61FB693A781146184605F03AFE1B
:100860000346DCB24FF0FF33BB61BB695B07BB6182
:10087000BB699B0EBB61BB697A781146184605F0CF
:1008800029FE0346DBB22343DCB24FF0FF337B612A
:100890007B695B077B617B695B0F7B617B69BA78F6
:1008A0001146184605F016FE0346DBB22343DBB2C1
:1008B000FB7307F10F0201230A217868FFF712FE8C
:1008C00038613B69002B01DA3B6907E07B6827331D
:1008D0003A461188927819809A7000231846243776
:1008E000BD4690BD90B585B000AF78600B46FB70FB
:1008F0001346BB707B68002B02D16FF0150322E01A
:10090000FB781946802005F0E5FD0346DCB24FF088
:10091000FF33FB60FB685B06FB60FB685B0EFB6004
:10092000FB68BA781146184605F0D4FD0346DBB2E1
:100930002343DBB2FB7207F10B0201230B21786822
:10094000FFF7D0FD034618461437BD4690BD90B55D
:1009500085B000AF78600B46FB701346BB707B68B8
:10096000002B02D16FF0150322E0FB78194680209E
:1009700005F0B0FD0346DCB24FF0FF33FB60FB68CF
:100980005B06FB60FB685B0EFB60FB68BA78114698
:10099000184605F09FFD0346DBB22343DBB2FB7232
:1009A00007F10B0201230C217868FFF79BFD03463A
:1009B00018461437BD4690BD80B584B000AF78604E
:1009C0000B46FB7013463B807B68002B02D16FF017
:1009D00015030FE03B881B0A9BB2DBB23B733B88DD
:1009E000DBB27B7307F10C02F97802237868FFF71A
:1009F00079FD034618461037BD4680BD80B582B0EC
:100A000000AF78600B467B807B881A460D217868A2
:100A1000FFF7D2FF034618460837BD4680BD80B5B4
:100A200082B000AF78600B467B807B881A460F212E
:100A30007868FFF7C1FF034618460837BD4680BDFA
:100A400080B582B000AF78600B467B807B881A4609
:100A500011217868FFF7B0FF034618460837BD46F6
:100A600080BD80B584B000AF786039607B68002BB2
:100A700002D03B68002B02D16FF0150340E07B6889
:100A800005330322002118460BF032F97B6802225D
:100A90005A710CE07B685A1D012300217868FFF72A
:100AA00051FDF860FB68002B01DAFB6828E07B68E9
:100AB0005B7903F00203002BECD17B685A1D032302
:100AC00004217868FFF73EFDF860FB68002B01DA2F
:100AD000FB6815E07B685B791A047B689B791B02D5
:100AE00013437A6852791A433B681A607B6893F81B
:100AF0002930022B03D17B68002283F829200023B0
:100B000018461037BD4680BD80B584B000AF786010
:100B100039607B68002B02D03B68002B02D16FF05C
:100B2000150340E07B6805330322002118460BF0D3
:100B3000DFF87B6801225A710CE07B685A1D0123A3
:100B400000217868FFF7FEFCF860FB68002B01DAF3
:100B5000FB6828E07B685B7903F00103002BECD194
:100B60007B685A1D032301217868FFF7EBFCF860CE
:100B7000FB68002B01DAFB6815E07B685B791A04DF
:100B80007B689B791B0213437A6852791A433B684E
:100B90001A607B6893F82930022B03D17B6800220E
:100BA00083F82920002318461037BD4680BD80B544
:100BB00088B000AF78600B46FB707B6827337B61A1
:100BC0000A23BB61FB78052B05D0FB78062B02D0EE
:100BD0006FF0150347E07B69FA789A707B691A78A1
:100BE000597809020A439B781B041A43002362F3D5
:100BF000170319467868FFF719FEF861FB69002BA7
:100C000001DAFB692FE0142001F042FD07F10F0229
:100C100001230A217868FFF795FCF861FB69002B36
:100C200001DAFB691FE04FF0FF333B613B695B0773
:100C30003B613B695B0F3B613B69DAB2FB7B134075
:100C4000DAB27B699A707B699B78002B04D0BB6910
:100C50005A1EBA61002BD6D1BB69002B02D16FF0AE
:100C60007303FB61FB6918462037BD4680BD80B524
:100C700084B000AFF860B9607A60FB681868BB6840
:100C8000D9B201237A68FFF75DFC03461846103796
:100C9000BD4680BD80B586B000AFF860B9607A60AF
:100CA0007B68DBB2FB75FB681868BB68D9B207F1DB
:100CB00017020123FFF716FC034618461837BD46F6
:100CC00080BD80B483B000AF786039607B68DA782B
:100CD0003B68DB789A4211D17B689A783B689B78B5
:100CE0009A420BD17B681A783B681B789A4205D1EF
:100CF0007B685A783B685B789A4201D0012300E018
:100D0000002303F00103DBB218460C37BD4680BC5C
:100D1000704780B483B000AF786039607B689A78A0
:100D20003B689B789A4217D17B681A793B681B799C
:100D30009A4211D17B681A783B681B789A420BD192
:100D40007B685A783B685B789A4205D17B68DA7891
:100D50003B68DB789A4201D0012300E0002303F0D6
:100D60000103DBB218460C37BD4680BC704780B427
:100D700083B000AF786039607B689A783B689B7875
:100D80009A420BD17B685A783B685B789A4205D1CE
:100D90007B681A783B681B789A4201D0012300E0F7
:100DA000002303F00103DBB218460C37BD4680BCBC
:100DB0007047000080B584B000AF786039607A6811
:100DC00007F1080327321188927819809A7000235E
:100DD000FB600AE0104AFB6812F813301A463B68C1
:100DE000934206DAFB680133FB60FB68072BF1D9FD
:100DF00000E000BFFB68072B01D90723FB60FB68FD
:100E0000DBB27B72B9687868FFF710FD03461846BD
:100E10001037BD4680BD00BF883E010080B584B05C
:100E200000AF786039607A6807F1080327321188CB
:100E3000927819809A700023FB600AE0104AFB68E0
:100E400012F813301A463B68934206DAFB68013306
:100E5000FB60FB68032BF1D900E000BFFB68032BAC
:100E600001D90323FB60FB68DBB23B72B968786889
:100E7000FFF7DCFC034618461037BD4680BD00BFB7
:100E8000803E010080B58EB000AF786039607B682D
:100E90003B633B6B1B68FB62FA6A07F11003193274
:100EA00010681860FA6A07F108031D3210681860AC
:100EB00012791A713B68DB78042B00F0B080052BA7
:100EC00003D0002B00F09280C2E001233B743B680A
:100ED0009B685B0903F00103002B14BF012300236F
:100EE000DBB2BB743B689B689B0903F00103002BDA
:100EF00014BF01230023DBB27B7400233B72FB6A27
:100F000093F82830BB626D4ABB6A5B0013445B7880
:100F10007B633B6B93F90C301AB23B68B3F900303A
:100F20009A4200F098803B68B3F900301A463B6B58
:100F3000043213F812305BB2DBB2DB0987F82730DA
:100F40003B68B3F900301A463B6B043213F81220A9
:100F50004FF0FF333B623B6A5B063B623B6A5B0ED2
:100F60003B623B6ADBB21340FB77FA7F97F827308E
:100F70001946F86AFFF7B6FCB861BB69002B01DAC5
:100F8000BB6997E03B68B3F900303A6B5B001344F0
:100F90005B7A5BB2DBB2DB0987F827303B68B3F9D9
:100FA00000303A6B5B0013445A7A4FF0FF337B6199
:100FB0007B695B067B617B695B0E7B617B69DBB276
:100FC0001340FB77FA7F97F827301946F86AFFF746
:100FD000BEFCB861BB69002B01DABB696AE03B6803
:100FE000B3F900305AB23B6B1A7334E03B68B3F983
:100FF0000030012B02D102237B7201E003237B72BC
:1010000001233B7200233B74FB6A93F82730BB62D9
:101010002A4ABB6A5B0013445B787B631CE03B6835
:10102000B3F90030012B02D101237B7201E00023D0
:101030007B7201233B7200233B74FB6A93F82730D9
:10104000BB621E4ABB6A5B0013445B787B6303E0B0
:101050006FF015032EE000BFFB6A193307F1100291
:1010600011461846FFF72DFE0346002B09D03969BB
:10107000F86AFFF7CAFAB861BB69002B01DABB69ED
:1010800018E0FB6A1D3307F1080211461846FFF706
:1010900040FE0346002B0CD007F1080393E806003E
:1010A000F86AFFF7F7FAB861BB69002B01DABB6990
:1010B00000E07B6B18463837BD4680BD883E010096
:1010C00080B58EB002AFF860B9607A603B60FB68B3
:1010D000FB62FB6A1B68BB623968F86AFFF7D2FEE5
:1010E00078627B6A002B01DA7B6A8AE07B6A3B626A
:1010F000BA6A07F1140327321188927819809A701E
:101100000223BB75BB6A273307F114021146184648
:10111000FFF72DFE0346002B09D07969B86AFFF767
:1011200085FB78627B6A002B01DA7B6A69E03B6AA7
:10113000184601F0ADFA3B68DB78042B04D0052B90
:101140003ED0002B1ED04EE007F118031946B86AB6
:10115000FFF787FC78627B6A002B01DA7B6A50E03C
:10116000BB6923F07F43A3F50003FB61FA691346D3
:101170005B019B1A9B001344002B00DAFF331B1208
:10118000FB6134E007F118031946B86AFFF769FC00
:1011900078627B6A002B01DA7B6A32E0BB6923F05C
:1011A0007F43A3F50003FB613B68B3F90030012BDB
:1011B0001CD1FA6913465B0013445B00FB6115E028
:1011C00007F118031946B86AFFF79EFC78627B6A3C
:1011D000002B01DA7B6A14E0BB6923F07F43A3F59F
:1011E0000003FB6103E06FF015030AE000BF07F1A5
:1011F0001C030093012301227968B86802F0A2FB66
:10120000034618463037BD4680BD80B58AB002AF70
:10121000F860B9607A603B603B68DB78002B09D0EE
:10122000052B0FD100237B614FF4F473BB610323C3
:10123000FB610AE040F292437B611723BB610B2301
:10124000FB6102E06FF015030AE0FB69DAB207F117
:101250001403009302237968B86802F073FB034615
:1012600018462037BD4680BD80B58AB002AFF86011
:10127000B9607A603B60FB68FB613B68B3F90030A2
:1012800018463B681B791946FA69430013440B441E
:1012900008331B781A464FF0FF33BB61BB695B060E
:1012A000BB61BB695B0EBB61BB691340084A02FBB3
:1012B00003F37B6107F11403009301230122796892
:1012C000B86802F03FFB034618462037BD4680BD94
:1012D000D62A050090B58DB000AFF860B9607A608D
:1012E0003B60FB68FB62FB6A1B68BB6207F1100294
:1012F00000230121B86802F08BFA78627B6A002B28
:1013000001DA7B6AB1E03B69002B03DB3B69594A98
:10131000934202DD6FF01503A7E03B69564A82FB5A
:1013200003125214DB17D31A3B613B69002BCCBF6D
:101330000123002387F8233097F82330002B02D0B5
:101340003B69DBB200E0002387F8223097F82330B6
:10135000002B12D04FF0FF33FB61FB695B06FB6192
:10136000FB695B0EFB61FB69DAB297F82230134030
:10137000DBB263F07F03D9B200E000213B68B3F930
:1013800000301C463B681B791846FA6A6300134418
:10139000034408330A461A703B68B3F900301A4612
:1013A000FB6A043213F812305BB2DBB2DB0987F858
:1013B00023303B68B3F900301A46FB6A043213F855
:1013C00012204FF0FF33BB61BB695B06BB61BB6999
:1013D0005B0EBB61BB69DBB2134087F8223097F824
:1013E000222097F823301946B86AFFF77BFA786213
:1013F0007B6A002B01DA7B6A37E03B68B3F9003087
:10140000FA6A5B0013445B7A5BB2DBB2DB0987F8F4
:1014100023303B68B3F90030FA6A5B0013445A7A10
:101420004FF0FF337B617B695B067B617B695B0E01
:101430007B617B69DBB2134087F8223097F822206A
:1014400097F823301946B86AFFF781FA78627B6A09
:10145000002B01DA7B6A08E03B68B3F900305AB22E
:10146000FB6A1A7300237B627B6818463437BD46DB
:1014700090BD00BF004090022B87156380B58AB0F5
:1014800002AFF860B9607A603B60FB68FB61FB69A2
:101490001B68BB613B68DB78002B0AD0052B11D1A0
:1014A000BB6993F828301A460F4B13F812307B6152
:1014B0000BE0BB6993F827301A460C4B13F8123037
:1014C0007B6102E06FF0150309E007F1140300935C
:1014D000012301227968B86802F034FA03461846FD
:1014E0002037BD4680BD00BF883E0100803E010020
:1014F00080B58AB000AFF860B9607A603B60FB6885
:101500003B623B6A1B68FB6107F1140307F1180299
:101510000121B86802F07CF978627B6A002B01DA5D
:101520007B6A1DE07B69002B02D06FF0150317E08A
:101530003B68DB78002B08D0052B0DD1BB69194621
:10154000F869FFF737FC786209E0BB691946F8696A
:10155000FFF764FC786202E06FF015037B627B6A40
:1015600018462837BD4680BDB0B586B000AFF860DC
:10157000B9607A603B6000237B613B68DB78002BBD
:1015800017D0052B26D1BB68174A1C4615460FCD30
:1015900020606160A260E36028682061AB88AA795E
:1015A000A3821346A375B8680BF0CCF803467B61A1
:1015B00014E0BB680D491A460B4603CB106051601E
:1015C00019889B7811819372B8680BF0BBF80346B9
:1015D0007B6103E06FF015037B6100BF7B691846F8
:1015E0001837BD46B0BD00BF983E0100B03E0100B7
:1015F00080B58EB002AFF860B9607A603B60FB687E
:10160000BB62BB6A1B687B623B68DB78002B05D042
:10161000052B07D10F2387F82F3006E0112387F819
:101620002F3002E06FF0150323E007F1140297F862
:101630002F100223786AFEF785FF38623B6A002B81
:1016400001DA3B6A15E00123BB613B7D1B027A7D19
:10165000134343F6095202FB03F39B0AFB6107F1B4
:1016600018030093022302227968B86802F06AF92D
:10167000034618463037BD4680BD000080B58AB0AD
:1016800000AFF860B9607A603B60FB687B627B6AA0
:101690001B683B6207F1140307F118020221B868C6
:1016A00002F0B6F8F861FB69002B01DAFB6926E06D
:1016B000BB69012B02D06FF0150320E07B699B0210
:1016C000114A82FB03121213DB17D31ABB613B686A
:1016D000DB78002B09D0052B0FD1BB699BB21946D3
:1016E000386AFFF79CF9034609E0BB699BB21946CB
:1016F000386AFFF7A5F9034601E06FF015031846B5
:101700002837BD4680BD00BF83DE1B4380B58CB04B
:1017100002AFF860B9607A603B60FB687B627B6A0D
:101720001B683B6207F1140202230D21386AFEF7A1
:1017300009FFF861FB69002B01DAFB690EE03B7DD4
:101740001B027A7D1343BB6107F118030093012349
:1017500001227968B86802F0F5F803461846283780
:10176000BD4680BD80B588B000AFF860B9607A60D2
:101770003B60FB68FB61FB691B68BB6107F1100202
:1017800000230121B86802F043F878617B69002BDF
:1017900001DA7B6910E03B69002B03DB3B69B3F5A1
:1017A000803F02DB6FF0150306E03B699BB21946F0
:1017B000B869FFF723F9034618462037BD4680BDB8
:1017C00080B588B000AFF860B9607A603B60FB68B4
:1017D000FB61FB691B68BB61BB681B78002B14BFF6
:1017E00001230023FB75FB7D83F00103DBB2002B9B
:1017F00001D0002314E03968F869FFF743FB386132
:101800003B69002B01DA3B690AE00521B869FFF763
:10181000CEF938613B69002B01DA3B6900E07B6857
:1018200018462037BD4680BD80B588B000AFF8604F
:10183000B9607A603B60FB68FB61FB691B68BB6158
:10184000BB681B78002B14BF01230023FB75FB7DB5
:1018500083F00103DBB2002B01D0002314E03968D0
:10186000F869FFF70FFB38613B69002B01DA3B6930
:101870000AE00621B869FFF79AF938613B69002B45
:1018800001DA3B6900E07B6818462037BD4680BD21
:1018900080B584B000AF786039601021012009F074
:1018A0003BFE0346FB60FB68002B02D14FF0FF3389
:1018B00027E0FB68154A5A60FB68FF221A73FA6832
:1018C0003B681B6819461046FEF782FDB860BB688E
:1018D000002B11D1FB681B681B79012B07D0FB681B
:1018E0005B681A88FB685B68023A92B21A807B6870
:1018F000FA681A60002304E000BFF86809F086FE69
:10190000BB6818461037BD4680BD00BF9C0204204E
:1019100080B584B000AF78607B681B681846FEF71E
:101920005BFEF860FB68002B01D0FB6803E0786881
:1019300009F06CFE002318461037BD4680BD00003C
:1019400080B584B000AF78607B681A681B4B1B6859
:101950009A4213D01A4B1A687B681B6819461046C6
:1019600006F026F80346FB73FB7B002B02D06FF0DA
:1019700015031FE07B681B68104A13607B681A79A7
:10198000104B1B789A4214D00D4B1A687B681B7958
:101990009BB21946104606F059F80346FB73FB7BD1
:1019A000002B02D06FF0150304E07B681A79054B19
:1019B0001A70002318461037BD4680BD5414042009
:1019C00020140420C802042080B584B000AF7860E1
:1019D00039607B68002B02D03B68002B02D16FF08E
:1019E00015035BE01021012009F096FD03461A461D
:1019F0007B681A607B681B68002B02D16FF00B03B9
:101A00004CE0284B1B68002B2ED1274B3022274956
:101A1000002005F01FFF0346002B0AD07B681B68DF
:101A2000184609F0F3FD7B6800221A606FF00D0381
:101A300034E001223021002005F00EFE0346002B89
:101A400012D07B681B68184609F0E0FD7B68002215
:101A50001A60154B1B68184605F054FF124B002204
:101A60001A606FF00D0319E00821012009F054FD00
:101A70000346FB607B681B683A6812681A607B68E3
:101A80001B683A6812791A717B681B68FA68DA6019
:101A9000044B1B680133034A1360002318461037B8
:101AA000BD4680BD1C1404202014042024140420EE
:101AB00080B584B000AF78607B68DB68FB607B68D2
:101AC000002B02D16FF0150326E0154B1B68013B7C
:101AD000134A1360124B1B68002B0DD1114B1B686E
:101AE000184605F00FFF0F4B00221A600E4BFF2225
:101AF0001A700E4B00221A60FB681B68002B04D082
:101B0000FB681B68184609F081FDF86809F07EFD46
:101B1000786809F07BFD002318461037BD4680BD6C
:101B20001C14042020140420C8020420541404208F
:101B300080B58CB000AFF860B96011461A460B460C
:101B4000FB711346BB71FB68DB68FB62FB68002B13
:101B500002D16FF0150375E00023BB62F868FFF750
:101B6000EFFE03467B627B6A002B01DA7B6A69E049
:101B7000FB681B79002B0FD1344B186807F1100359
:101B8000FA79B96805F07EFF0346002B02D06FF0AA
:101B9000040357E0002355E0BB79002B33D1FB6AE7
:101BA000FA791A71FB6A1B68002B15D0FB6A1B6857
:101BB000FA79114618460AF047F9B862BB6A002B59
:101BC00006D1FB6A1B68184609F020FD012339E0A5
:101BD000FB6ABA6A1A600DE0FB79184609F00EFD3F
:101BE00003461A46FB6A1A60FB6A1B68002B01D188
:101BF000012327E0FB6A1B68FA79B968184609F0E7
:101C00009FFF00231EE0002387F8233000237B6121
:101C100000233B83BB68FB61FB799BB23B840023C1
:101C200087F82230094B1B6807F1100207F11401F5
:101C3000184605F079FE0346002B02D06FF004032E
:101C400000E0002318463037BD4680BD2014042034
:101C500080B58CB000AFF860B96011461A460B46EB
:101C6000FB711346BB71FB68DB68FB62FB68002BF2
:101C700002D16FF0150342E0F868FFF761FE0346FA
:101C8000BB62BB6A002B01DABB6A38E0FB6A1B79D6
:101C9000002B0AD0012387F82730FB6A1B68BB6141
:101CA000FB6A1B799BB2BB8306E0002387F82730D1
:101CB0000023BB610023BB83BB683B62FB799BB203
:101CC000BB84012387F826300F4B1B6807F11402F1
:101CD00007F11801184605F027FE0346BB62FB6AB0
:101CE0001B79002B0AD0FB6A1B68184609F08EFC92
:101CF000FB6A00221A60FB6A00221A71BB6A18464E
:101D00003037BD4680BD00BF2014042080B483B0AE
:101D100000AF0346FB7197F90730002B0BDBFB7913
:101D200003F01F02064997F907305B09012000FA0A
:101D300002F241F8232000BF0C37BD4680BC70473B
:101D400000E100E080B483B000AF0346FB7197F977
:101D50000730002B10DBFB7903F01F02094997F9CC
:101D600007305B09012000FA02F2203341F82320FA
:101D7000BFF34F8FBFF36F8F00BF0C37BD4680BCE2
:101D8000704700BF00E100E080B584B000AF78602C
:101D900039607B68002B06D03B68002B03D0204BBA
:101DA0001B68002B02D04FF0FF3335E00C210120DF
:101DB00009F0B2FB03461A467B681A607B681B6811
:101DC000002B02D14FF0FF3326E05C21012009F007
:101DD000A3FB0346FB60FB68002B0AD17B681B68F2
:101DE000184609F013FC7B6800221A604FF0FF339D
:101DF00012E07B681B68FA689A607B681B683A6827
:101E000012681A60FB6828333021184608F084FFF6
:101E1000034B01221A60002318461037BD4680BDCF
:101E20005814042080B584B000AF78607B68002B24
:101E300007D07B689B68002B03D0194B1B68002BD5
:101E400002D14FF0FF3326E00023FB600AE0154A81
:101E5000FB6852F82330DBB2184608F0D3FFFB686A
:101E60000133FB60FB68032BF1D908F06DFF0421FF
:101E70007868FEF76FFA05217868FEF76BFA7B68E1
:101E80009B68184609F0C2FB786809F0BFFB044B59
:101E900000221A60002318461037BD4680BD00BFDF
:101EA00058140420643F010080B58CB000AFF86086
:101EB000B9607A60FB68002B0AD0FB689B68002B36
:101EC00006D0824B1B68002B02D0BB68072B02D9BF
:101ED0004FF0FF33F6E07B68002B05D1B968F86856
:101EE000FEF738FA0346EDE0FB689B68FB62BB68CF
:101EF000072B00F2DD8001A252F823F01D1F000025
:101F00001D1F00001D1F00001D1F0000451F0000B9
:101F1000791F0000B71F0000B71F00007B689B6897
:101F2000D9B2FB6ABA6803F82210694ABB6852F852
:101F30002330D8B27B6819687B685B681A4608F062
:101F40009BFFB8E07B689968FB6ABA6843F8221087
:101F5000FB6ABA6853F822307B617B69002B02D19F
:101F60004FF0FF33AEE07B681A687B699A607B684C
:101F70005A687B69DA609EE07B689968FB6ABA6898
:101F800043F82210FB6ABA6853F822301B68FB61E1
:101F9000FB69002B02D14FF0FF3393E0FB69DB6854
:101FA000BB61BB6918687B6819687B685B681A4607
:101FB00006F0E0FC7FE0BB68062B01D1092300E0BE
:101FC0000A2387F82B307B689968FB6ABA6843F864
:101FD0002210FB6ABA6853F822301B687B627B6A66
:101FE000002B02D14FF0FF336CE07B681B68002BA5
:101FF00008D097F82B007B6819687B685B681A46E5
:1020000005F064FB7B6A1B681B11DBB203F00F0356
:1020100087F8233097F82B1007F1120297F8233036
:10202000184605F0C1FA7B6A1B6803F00F03012212
:1020300002FA03F31AB27B8A1BB213431BB29BB2A0
:102040007B8297F82B107A8A97F82330184605F090
:1020500079FA07F1120297F823301146184605F075
:10206000E3FA7B6A1B6803F00F03012202FA03F311
:102070001BB2DB431AB27B8A1BB213401BB29BB26A
:102080007B82FB6ABA6853F822301B791A46012317
:1020900093401AB27B8A1BB213431BB29BB27B8262
:1020A0007A8A97F823301146184605F0A5FA02E01F
:1020B0004FF0FF3306E0FA6ABB6813442033012275
:1020C0001A70002318463037BD4680BD58140420CE
:1020D000643F010080B58AB000AF786039607B68EA
:1020E000002B0AD07B689B68002B06D0594B1B68DD
:1020F000002B02D03B68072B02D94FF0FF33A4E03E
:102100007B689B683B623B68072B00F2818001A2E1
:1021100052F823F035210000352100003521000060
:10212000352100004B2100006F210000A921000093
:10213000A9210000484A3B6852F82330DBB2002254
:102140000021184608F098FE6AE03B6A3A6853F8A6
:102150002230002B5FD03B6A3A6853F82230FB6094
:10216000FB680022DA60FB6800229A6053E03B6A59
:102170003A6853F82230002B4FD03B6A3A6853F844
:1021800022301B687B617B69002B02D14FF0FF334B
:102190005BE07B69DB683B613B691B6800220021D7
:1021A000184606F0E7FB38E03B68062B01D109230F
:1021B00000E00A23FB773B6A3A6853F82230002B91
:1021C0002DD03B6A3A6853F822301B68BB61BB696B
:1021D000002B02D14FF0FF3337E0FB7F00220021BC
:1021E000184605F073FA002387F827300BE0F97FD3
:1021F00097F827300022184605F0A4F997F8273001
:10220000013387F8273097F82730022BEFD906E003
:102210004FF0FF3319E000BF02E000BF00E000BF55
:102220003B6A3A68002143F822103B6A3A68002171
:1022300003F822103A6A3B681344203300221A70D4
:1022400039687868FEF7B4F8034618462837BD4663
:1022500080BD00BF58140420643F010080B584B0E5
:1022600000AF78607B68002B07D07B689B68002BF1
:1022700003D0284B1B68002B02D14FF0FF3345E001
:102280007B689B68BB600023FB6013E0BB689A6DB2
:102290000121FB6801FA03F31340002B07D0FB6810
:1022A000DBB20133DBB25BB21846FFF72FFDFB68F0
:1022B0000133FB60FB68032BE8D9BB689B6D03F01F
:1022C0001003002B03D004217868FEF761F8BB6887
:1022D0009B6D03F02003002B03D005217868FEF7E7
:1022E00057F8BB689B6D03F04003002B03D0062119
:1022F0007868FEF74DF8BB689B6D03F08003002BF8
:1023000003D007217868FEF743F8002318461037FA
:10231000BD4680BD5814042080B584B000AF7860FD
:102320007B68002B07D07B689B68002B03D0284B71
:102330001B68002B02D14FF0FF3345E07B689B68A0
:10234000BB600023FB6013E0BB689A6D0121FB6852
:1023500001FA03F31340002B07D0FB68DBB2013313
:10236000DBB25BB21846FFF7EDFCFB680133FB60A4
:10237000FB68032BE8D9BB689B6D03F01003002BAF
:1023800003D004217868FEF713F8BB689B6D03F057
:102390002003002B03D005217868FEF709F8BB68FD
:1023A0009B6D03F04003002B03D006217868FDF7F6
:1023B000FFFFBB689B6D03F08003002B03D0072158
:1023C0007868FDF7F5FF002318461037BD4680BD3D
:1023D0005814042080B586B000AF786039607B68FF
:1023E000002B0AD07B689B68002B06D0364B1B68FD
:1023F000002B02D03B68072B02D94FF0FF335EE081
:102400007B689B687B617A693B68134420331B7847
:1024100083F00103DBB2002B02D04FF0FF334EE01C
:102420003B68032B0CD8294A3B6852F82330D8B2BA
:102430007B693A6813F82230194608F091FC34E0C1
:102440003B68042B03D10E20FFF760FC2DE03B68B6
:10245000052B18D17B693A6853F82230002B12D033
:102460007B693A6853F822301B68DB683B613B6943
:1024700018687B693A6853F822305B680122194674
:1024800006F06AF911E03B68062B02D03B68072B87
:102490000BD13B68062B01D1092300E00A23FB7313
:1024A00097F90F301846FFF731FC7B699A6D0121CF
:1024B0003B6801FA03F31A437B699A6500231846C7
:1024C0001837BD4680BD00BF58140420643F01008A
:1024D00080B586B000AF786039607B68002B0AD089
:1024E0007B689B68002B06D02E4B1B68002B02D00C
:1024F0003B68072B02D94FF0FF334EE07B689B68A7
:102500007B613B68032B08D8274A3B6852F823308D
:10251000DBB2184608F076FC34E03B68042B03D1AC
:102520000E20FFF70FFC2DE03B68052B18D17B69CF
:102530003A6853F82230002B12D07B693A6853F87E
:1025400022301B68DB683B613B6918687B693A682D
:1025500053F822305B680022194606F0FDF811E0BE
:102560003B68062B02D03B68072B0BD13B68062B40
:1025700001D1092300E00A23FB7397F90F301846B5
:10258000FFF7E0FB7B699A6D01213B6801FA03F3D9
:10259000DB431A407B699A65002318461837BD460D
:1025A00080BD00BF58140420643F010080B586B090
:1025B00000AF7860396000233B813B68002B01D07D
:1025C000144B01E04FF47A73FB6000233B613B68DE
:1025D000002B0FD007F1080319460F4800F0B6F89A
:1025E0000346002B01D0002310E00B4B1B6818465C
:1025F00000F090F907F108031946786800F0A6F892
:102600000346002B01D0002300E0012318461837B1
:10261000BD4680BD40420F006014042080B584B0E8
:1026200000AF786039600021786800F0CFFA7868F0
:1026300000F070F907F10C031946786800F0E6F92C
:10264000FB683A689A42F5D8786800F09FF900BFB5
:102650001037BD4680BD000080B582B000AF786005
:102660000A4B1B68002B06D101210848FFF79EFF8B
:102670000346002B06D0054B1B6879681846FFF708
:10268000CDFF00E000BF0837BD4680BD5C140420CC
:1026900080B582B000AF78600A4B1B68002B06D172
:1026A00000210848FFF782FF0346002B06D0054BA8
:1026B0001B6879681846FFF7B1FF00E000BF0837D4
:1026C000BD4680BD6414042080B582B000AF05F023
:1026D0006DFD03467B607B68002B02D04FF0FF331B
:1026E00019E00121012005F0F3FD03467B607B68C2
:1026F000002B02D04FF0FF330DE00121002005F048
:10270000E7FD03467B607B68002B01D07B6802E01D
:1027100008F03EFC002318460837BD4680BD000087
:1027200090B484B000AFF860B9607A60064BD3E92A
:1027300000124B1C42F10004034AC2E9003400BFFE
:102740001037BD4690BC70476814042080B588B02F
:1027500000AF786039607B68002B07D03B68002BA6
:1027600004D03B685B68384A934202D94FF0FF338C
:1027700066E01021012008F0CFFE0346FB61FB69F3
:10278000002B02D14FF0FF335AE01021012008F056
:10279000C3FE0346BB61BB69002B08D1F86908F092
:1027A00035FF7B6800221A604FF0FF3348E0274B6B
:1027B0001B68002B2BD13B681B881A46244B1A60E0
:1027C000234B1B68D8B201230022224907F0EAF804
:1027D00000233B7301237B730023BB730123FB7333
:1027E00046F290533B8246F290537B8201233B7525
:1027F00001237B7500BF164B1B68DBB207F10C028F
:102800001146184607F036F90346062BF3D00F4B56
:102810001B6801330D4A13600D4B1B689AB2FB69AC
:102820001A80FB69BA69DA603B685A68FB695A60CA
:102830003B689A68FB699A607B68FA691A600023B2
:1028400018462037BD4680BD40420F00701404205A
:102850007814042021270000F0B585B000AF78601F
:102860000023FB817B685B68B3F57A7F41D9264BF7
:102870001B68DBB207F10E021146184607F098F903
:10288000224BD3E900562B4634464FF000014FF05F
:102890000002620142EAD36259010B4614465B1BF7
:1028A00064EB06044FF000014FF00002A20042EA80
:1028B000937299000B4614465B1944EB06044FF0E3
:1028C00000014FF00002E20042EA5372D9000B46C9
:1028D000144619462246FB89C3F5CB4310330C48F6
:1028E000A0FB0303DB084FF000045D1844EB020675
:1028F00002E0064BD3E900562B46344618462146E3
:102900001437BD46F0BD00BF7814042068140420BD
:102910004FECC44E90B585B000AF78607B68002B5B
:1029200002D14FF0FF3329E07B68DB68FB60FB6876
:102930001B7A002B02D04FF0FF331FE0114B1B68B6
:10294000002B0AD100BF104B1B68DBB201211846D7
:1029500007F0F6F80346062BF5D07868FFF77CFF02
:1029600003460C46FA68C2E90034FB6801221A7279
:10297000044B1B680133034A1360002318461437C5
:10298000BD4690BD741404207814042080B584B032
:1029900000AF78607B68002B02D14FF0FF332DE051
:1029A0007B68DB68FB60FB681B7A83F00103DBB2AA
:1029B000002B02D04FF0FF3320E007F10803194647
:1029C000786800F023F8BA687B689A600D4B1B6842
:1029D000012B0AD100BF0C4B1B68DBB2002118464B
:1029E00007F0AEF80346062BF5D0064B1B68013BFB
:1029F000044A1360FB6800221A720023184610373D
:102A0000BD4680BD7414042078140420F0B58DB048
:102A100000AF786039607B68002B02D03B68002BE8
:102A200002D14FF0FF33C4E07B68DB687B627B6AD6
:102A30001B7A83F00103DBB2002B05D07B689A6818
:102A40003B681A600023B4E05C4B18CBC7E906343E
:102A50007B685B68B3F57A7F7CD9594B1B68DBB226
:102A600007F10E021146184607F0A2F8FB89C3F5DC
:102A7000CB431033534AA2FB0323DB089BB2FB81F9
:102A8000D7E906562B4634464FF000014FF00002BE
:102A9000620142EAD36259010B4614465B1B64EBA8
:102AA00006044FF000014FF00002A20042EA9372C8
:102AB00099000B4614465B1944EB06044FF00001E5
:102AC0004FF00002E20042EA5372D9000B4614466E
:102AD00019462246FB899DB24FF000066B1846EB63
:102AE0000204C7E90A347B6A18CBD7E90A12A2426A
:102AF00008BF994207D2D7E90A3413F57A7144F135
:102B00000002C7E90A127B6AD3E90056D7E90A1224
:102B10000B4614465B1B64EB0604C7E904347B6870
:102B20005B684FF000043A6904FB02F17A6903FB29
:102B300002F20A443969A1FB030153181946224ADB
:102B40004FF0000308F066FB03460C461A463B684C
:102B50001A6026E07B6AD3E90056D7E906120B46D5
:102B600014465B1B64EB0604C7E904347B685B68AE
:102B70004FF000043A6904FB02F17A6903FB02F2A8
:102B80000A443969A1FB0301531819464FF47A72BC
:102B90004FF0000308F03EFB03460C461A463B6824
:102BA0001A603B681A687B689B681A443B681A6025
:102BB000002318463437BD46F0BD00BF681404201A
:102BC000781404204FECC44E40420F0090B585B0FD
:102BD00000AF786039607B68002B03D07B68DB68CE
:102BE000002B02D14FF0FF330EE07B68DB68FB6007
:102BF0007868FFF731FE03460C46FA68C2E90034F4
:102C00007B683A689A60002318461437BD4690BD29
:102C100080B584B000AF1421012008F07DFC03468C
:102C2000FB60FB68002B01D1002336E02821012046
:102C300008F072FC0346BB60BB68002B04D1F86847
:102C400008F0E4FC002328E0FB68BA681A61B321AD
:102C5000012008F061FC03461A46BB689A60BB6815
:102C60009B68002B07D1B86808F0D0FCF86808F022
:102C7000CDFC002311E0BB689B687B607B6803335D
:102C800023F003031A46BB689A60BB689B681A4628
:102C90007B68D21ABB68DA60FB6818461037BD46FD
:102CA00080BD80B584B000AF78607B681B69FB6035
:102CB000FB689B681A46FB68DB68D31A184608F065
:102CC000A5FCFB6800229A60FB680022DA607B6842
:102CD0001B69184608F09AFC786808F097FC00BF5A
:102CE0001037BD4680BD80B588B000AFF860B960D0
:102CF0007A60FB68FB61FB691B69BB61BB68002BE9
:102D000002D0012B35D069E0BB695B6A002B21D072
:102D1000BB695B6AB3F5806F28BF4FF480637B614A
:102D2000BB695A6A7B69D21ABB695A62BB69186867
:102D3000BB69196A7B69042B8CBF01230023DBB2BA
:102D40007A6907F09BFABB691A6A7B691A44BB6906
:102D50001A625DE0BB6900221A77FB699B68002B51
:102D600056D0FB699B68FA69D06800220121984718
:102D70004EE0BB699B69002B21D0BB699B69B3F511
:102D8000806F28BF4FF480637B61BB699A697B6960
:102D9000D21ABB699A61BB691868BB6959697B69BA
:102DA000042B8CBF01230023DBB27A6907F0B2F950
:102DB000BB695A697B691A44BB695A612AE0BB69DD
:102DC00000221A74FB699B68002B23D0FB699B6867
:102DD000FA69D0680022002198471BE0BB699A88F5
:102DE0007B689BB213439AB2BB699A80BB6900228D
:102DF0001A77BB6900221A74FB699B68002B0BD001
:102E0000FB699B68FA69D0687A680221984703E0F9
:102E100000BF02E000BF00E000BF00BF2037BD469A
:102E200080BD80B58AB002AFF860B9607A60FB6897
:102E3000002B02D0BB68002B02D14FF0FF3344E0DF
:102E4000FB681B697B617B68002B02D101233B611E
:102E500031E000BF7B691B7F002BFBD10023BB61EE
:102E600023E07B68B3F5806F28BF4FF48063FB617C
:102E70007B691868BA68BB69D1187B68042B8CBF62
:102E800001230023DAB207F1100300931346FA6915
:102E900007F0E9FA0346002B0CD17A68FB69D31AD4
:102EA0007B60BA69FB691344BB617B68002BD8D196
:102EB000FB690AE000BF7B699A883B699BB21343B8
:102EC0009AB27B699A804FF0FF3318462037BD468F
:102ED00080BD80B58AB002AFF860B9607A60FB68E7
:102EE000002B05D0BB68002B02D07B68002B02D1E1
:102EF0004FF0FF333EE0FB681B697B6100BF7B69DD
:102F00001B7C002BFBD10023BB6123E07B68B3F566
:102F1000806F28BF4FF48063FB617B691868BA68D3
:102F2000BB69D1187B68042B8CBF01230023DAB264
:102F300007F1100300931346FA6907F053FA0346AA
:102F4000002B0CD17A68FB69D31A7B60BA69FB69E4
:102F50001344BB617B68002BD8D1FB690AE000BF3A
:102F60007B699A883B699BB213439AB27B699A80CA
:102F70004FF0FF3318462037BD4680BDF0B58BB00B
:102F800002AF786039607B68002B12D03B68002B61
:102F90000FD03B68DB68002B0BD03B681B78002B05
:102FA00007D13B681B781A465F4B53F82230002B41
:102FB00002D04FF0FF33B2E03B681B7819465A4B02
:102FC000012243F82120FFF723FE02467B681A60A6
:102FD0007B681B68002B02D14FF0FF339FE07B68BA
:102FE0001B681B69BB613B68DB687B617B681B6896
:102FF0003A6852685A607B681B683A6812781A709F
:103000003B681B781846BB699A68BB690093B0237C
:10301000022106F059FF0346FB74FB7C002B6DD1A7
:10302000BB6918687B6919787B695A787B699B78DA
:1030300007F0A4FA0346FB74FB7C002B60D100234D
:10304000FB610EE03949FA6913465B0013449B00AB
:103050000B441A683B685B689A4206D0FB690133EF
:10306000FB61FB69092BEDD900E000BF07F10C0300
:103070001946002005F0F8F8FB690A2B42D0FB68DE
:103080002B4A93423ED1BB6918682849FA69134616
:103090005B0013449B000B4408331C882349FA69E6
:1030A00013465B0013449B000B4406331D781F49F5
:1030B000FA6913465B0013449B000B4404331E88DB
:1030C0001A49FA6913465B0013449B000B440A3308
:1030D0001B78009333462A46214607F078FA0346C8
:1030E000FB74FB7C002B0FD1BB6918687B681B68E5
:1030F0001A46104907F030FA002310E000BF04E040
:1031000000BF02E000BF00E000BF7B681B681846FC
:10311000FFF7C7FD7B6800221A604FF0FF331846A7
:103120002437BD46F0BD00BF7C140420A83F010039
:1031300080BA8C01E72C000080B582B000AF7860C7
:1031400039600A4B1B681B7A002B09D1074B1B689F
:103150005B6A3A6879681846FFF763FE034601E048
:103160006FF0150318460837BD4680BD8014042053
:1031700080B582B000AF786039600A4B1B681B7A5B
:10318000002B09D1074B1B685B6A3A6879681846BF
:10319000FFF79FFE034601E06FF01503184608375E
:1031A000BD4680BD8014042080B584B002AF786035
:1031B00039603B6893F82130002B10D03B681B79B5
:1031C0001A46264B53F822103B68DB68244A52F813
:1031D00023300A462349786809F050F839E03B6803
:1031E00093F82230002B2AD03B6893F82330002B31
:1031F00018D03B681B791A46184B53F822103B68CD
:1032000098683B681B791A46144B53F822303A6889
:10321000D2680192009303460A461349786809F080
:103220002DF816E03B681B791A460C4B53F8222008
:103230003B689B680D49786809F020F809E03B6815
:103240001B791A46054B53F822301946786809F065
:103250001BFA00BF0837BD4680BD00BFE042010039
:10326000F842010060400100684001007440010024
:1032700080B596B000AFF860B9601346FB710023CB
:10328000A7F8563036E0BB685968B7F956201346A0
:10329000DB0013449B00CA1807F1140311461846BB
:1032A000FFF782FF07F114031946F86809F00EF9D9
:1032B0000346002B17D1BB685968B7F9562013464F
:1032C000DB0013449B000B4493F82030FA799A42B8
:1032D00009D1BB685968B7F956201346DB0013447F
:1032E0009B000B440DE0B7F956309BB201339BB203
:1032F000A7F85630B7F95630BA6812889342C2DB45
:10330000002318465837BD4680BD000080B58EB0FA
:1033100000AF786007F108037968184609F0B4F93E
:103320000A4B1B681B6907F1080207F130011846B8
:1033300002F042FF78637B6B002B01DA002300E090
:103340003B6B18463837BD4680BD00BF8014042053
:10335000F0B5C9B002AF3B1D18603B4619600023B1
:10336000A7F816310023A7F8143177E0B7F9162132
:1033700013469B0013449B001A463B461B681344AC
:10338000DC683B1D1B6818683B1D1B689D683B1D66
:103390001B68DE68B7F9162113469B0013449B0097
:1033A0001A463B461B6813445B6807F10C01009307
:1033B00033462A46A047C7F810013B1D1B685A68D0
:1033C000B7F914311344C7F80C31D7F810311A0E7D
:1033D000D7F810311B1203F47F431A43D7F810318A
:1033E0001B0203F47F031343D7F8102112061A437C
:1033F000D7F80C311A60B7F8143104339BB2A7F830
:103400001431D7F81031002B21DB3B1D1B685A68A3
:10341000B7F91431134407F10C021146184609F0AC
:1034200033F9D7F8103103F00303002B06D0D7F897
:1034300010319B1001339B00C7F81031D7F81031C1
:103440009AB2B7F8143113449BB2A7F81431B7F904
:1034500016319BB201339BB2A7F81631B7F916218A
:1034600013469B0013449B001A463B461B681344BB
:103470001B68002B7FF47AAFB7F91431184607F5B3
:103480008E77BD46F0BDF0B587B002AF7860396089
:103490000023FB810023BB8151E07B685A68B7F9A8
:1034A0000C3013441B0E9AB27B685968B7F90C3084
:1034B0000B441B0A9BB223F0FF039BB213439BB246
:1034C0007B81BB8904339BB2BB81B7F90E201346C5
:1034D0009B0013449B001A463B6813441C697B689D
:1034E00018687B685A68B7F90C30D118B7F90A50D8
:1034F0007B68DE68B7F90E2013469B0013449B00DF
:103500001A463B6813445B68009333462A46A0473B
:10351000BA897B8913449BB2BB81BB8903F0030347
:10352000002B06D0B7F90C309B101BB201339B0067
:10353000BB81B7F90E309BB201339BB2FB81B7F967
:103540000E2013469B0013449B001A463B6813440D
:103550001B68002BA1D17B689B6818461437BD46B9
:10356000F0BDF0B589B002AFF860B9607A60FB7069
:103570000023FB8216E0B7F9162013469B00134484
:103580009B001A46BB6813441B681946786808F00C
:103590009DFF0346002B12D0B7F916309BB20133C2
:1035A0009BB2FB82B7F9162013469B0013449B0085
:1035B0001A46BB6813441B68002BDCD100E000BF37
:1035C000B7F9162013469B0013449B001A46BB68AC
:1035D00013441B68002B02D16FF0010363E0FB78FA
:1035E000002B30D0B7F9162013469B0013449B00E4
:1035F0001A46BB6813441B69002B02D16FF001030C
:1036000051E0B7F9162013469B0013449B001A465D
:10361000BB6813441C69FB681868FB685968FB6841
:103620009D68FB68DE68B7F9162013469B001344BB
:103630009B001A46BB6813445B68009333462A46D6
:10364000A04703462FE0B7F9162013469B0013440A
:103650009B001A46BB681344DB68002B02D16FF055
:10366000010320E0B7F9162013469B0013449B008A
:103670001A46BB681344DC68FB681868FB68596825
:10368000FB689D68FB68DE68B7F9162013469B004F
:1036900013449B001A46BB6813445B68009333468F
:1036A0002A46A047034618461C37BD46F0BD000019
:1036B00080B586B000AFF860B9607A6000233B61E6
:1036C000FB68DB695B6AFA685069FA68916907F11F
:1036D0001002984778617B69002B01DA7B6906E06C
:1036E0003B69054A7968B86808F082FD03461846C8
:1036F0001837BD4680BD00BF7C40010080B588B052
:1037000000AFF860B9607A6007F1100307F11402A6
:103710001749B86808F0D4FD0346FB61FB69022B2A
:103720000DD1FB68DB699B6AFA68506979693A696F
:103730009847B861BB69002B15DABB6914E007F143
:1037400014031A460B49B86808F0BAFD0346FB613A
:10375000FB69012B04D17A69FB689A617B6803E0FD
:103760006FF0150300E07B6818462037BD4680BD2A
:10377000804001007C40010080B586B000AFF86059
:10378000B9607A60FB701E49F86809F053F87861F7
:103790007B69002B02D16FF015032CE00022002181
:1037A000786909F025F90246BB681A60FB78002B9E
:1037B0000DD01449002009F03DF878617B69002B99
:1037C0000AD11149002009F035F8786104E00F4969
:1037D000002009F02FF878617B69002B02D16FF08F
:1037E000150308E000220021786909F001F902467A
:1037F0007B681A60002318461837BD4680BD00BF9D
:103800008C4001009040010094400100984001006C
:1038100080B588B000AFF8607A603B600B46FB7201
:103820000023FB6100237B61FB7A013B0B2B6FD8EC
:1038300001A252F823F000BF69380000A13800004F
:10384000C938000079380000113900001139000032
:103850001139000011390000113900001139000040
:1038600011390000F138000000220021F86809F049
:10387000BFF80346BB614EE007F1140207F11801DF
:103880000123F868FFF778FFF861FB69002B01DA84
:10389000FB694DE07B69284A02FB03F37B613AE058
:1038A00007F1140207F118010023F868FFF764FF1D
:1038B000F861FB69002B01DAFB6939E07B691E4A7C
:1038C00002FB03F37B6126E007F1140207F1180104
:1038D0000023F868FFF750FFF861FB69002B01DA5D
:1038E000FB6925E07B69154A02FB03F37B6112E06B
:1038F00007F113031A461249F86808F0E1FC034681
:10390000012B02D06FF0150312E0FB7CBB6102E0DB
:103910006FF015030CE07B68002B02D0BA697B685E
:103920001A603B68002B02D07A693B681A60FB6919
:1039300018462037BD4680BDA086010000E1F50590
:103940009C4001002DE9F0438FB002AFF860B960F0
:103950003B601346FB71002387F82F300023BB62C6
:1039600000237B62FB79013B0B2B00F2298101A232
:1039700052F823F0A5390000BD390000EB390000F2
:10398000B73900009D3B0000C13B0000C13B000077
:10399000C13B0000C13B0000073A0000713A000043
:1039A000AD3B00003B6D1B68884AB968F86808F0B9
:1039B0001FFC034605E1012387F82F303B6D1A6891
:1039C0003B6D04331B68194697F82F30002B01D04C
:1039D0007F4B00E07F4B0193009113467E4AB9680C
:1039E000F86808F005FC0346EBE03B6D1A683B6D98
:1039F00004331B6800931346784AB968F86808F0E6
:103A0000F7FB0346DDE03B6D1B684FEAE374744A45
:103A100002FB04F1002202FB03F20A447049A3FBFB
:103A20000134224414463A6D043212681846214685
:103A300002F087FD03460C46C7E906343B6D5B6820
:103A40003B61D7E9060107F11003654A02F054FD16
:103A500003460C467B613B69002BB8BF5B42009379
:103A60007B69604AB968F86808F0C2FB0346A8E0C1
:103A70003B6D1B681A464FEAE273594901FB03F09C
:103A8000002101FB02F101445548A2FB0023194427
:103A90000B46002A73F1000329DA3B6D1B684FEADD
:103AA000E374514A02FB04F14FF0FF3202FB03F2D0
:103AB0000A444D49A3FB0134224414463A6D0432B2
:103AC0001268C2F12000B2F1200123FA02F804FAD0
:103AD00000F048EA000803D444FA01F148EA01087A
:103AE00044FA02F9D8F1000469EB490523E03B6D83
:103AF0001B681A464FEAE273394901FB03F00021C3
:103B000001FB02F101443648A2FB002319440B4695
:103B1000396D04310968C1F12006B1F1200022FAA3
:103B200001F403FA06F644EA060402D443FA00F06C
:103B3000044343FA01F5C7E90645D7E9060107F151
:103B40001003274A02F0D8FC03460C467B613B6910
:103B5000002BB8BF5B4200937B69224AB968F868C2
:103B600008F046FB03462CE0FA687B6AD018BA6876
:103B70007B6AD11ABB6A9B003A6D13441B681B4ACF
:103B800008F036FB03461A467B6A13447B627A6A66
:103B9000BB689A4207D2BB6A0133BB62BA6A3B6810
:103BA0009A42E1DB00E000BF7B6A0AE03B6D1B68E4
:103BB000DBB20F4AB968F86808F01AFB034600E068
:103BC000002318463437BD46BDE8F083A04001000D
:103BD000A4400100A8400100AC400100B840010031
:103BE00000CA9A3BC4400100003665C4D0400100C1
:103BF0009C40010080B58AB000AFF860B9607A607F
:103C00003B60F868FFF782FB38623B6A002B02D109
:103C10004FF0FF334CE07B687B613B68BB613B6AE4
:103C20005B693B610023FB6100237B6297F83030C6
:103C3000012B04D0022B22D0002B1BD024E01E49E4
:103C4000B86808F043FC0346002B0ED13B6ADB69E1
:103C50005B6A002B06D03A687968386AFFF728FD5E
:103C6000034625E06FF0010322E03B6ADB69DB6875
:103C70007B6209E03B6ADB699B687B6204E03B6A2C
:103C8000DB691B697B6200BFBB681B78002B07D117
:103C900007F11003796A1846FFF75AFB034607E05D
:103CA00007F110000023BA68796AFFF75AFC03464F
:103CB00018462837BD4680BDD840010080B58AB07F
:103CC00000AFF860B9607A603B60F868FFF71EFBF0
:103CD00038623B6A002B02D16FF012034CE07B6824
:103CE0007B613B68BB613B6A5B693B610023FB61B5
:103CF00000237B6297F83030012B04D0022B22D0B6
:103D0000002B1BD024E01E49B86808F0DFFB0346F7
:103D1000002B0ED13B6ADB699B6A002B06D03A6808
:103D20007968386AFFF7EAFC034625E06FF0010383
:103D300022E03B6ADB69DB687B6209E03B6ADB69A6
:103D40009B687B6204E03B6ADB691B697B6200BFA6
:103D5000BB681B78002B07D107F11003796A18465E
:103D6000FFF791FB034607E007F110000123BA6853
:103D7000796AFFF7F6FB034618462837BD4680BD33
:103D8000D840010080B58EB000AFF860B9603B60EC
:103D90001346FB71F868FFF7B9FA78637B6B002B69
:103DA00002D14FF0FF3341E07B6BDB69FA791946B2
:103DB000B868FFF75DFA38633B6B002B02D16FF0F8
:103DC000010333E0FB7987F826303B6B9B681BB21D
:103DD000BB843B6B1B7987F827303B6B93F8233010
:103DE00087F828303B6B1B69FB623B6CBB617B6CCB
:103DF000FB617B6B5B697B6107F124033B623B6882
:103E00001B78002B09D13B6BDA6907F114031146CB
:103E10001846FFF79DFA034608E03B6BD96907F1A6
:103E2000140000233A68FFF79CFB03461846383716
:103E3000BD4680BD80B58EB000AFF860B9603B6014
:103E40001346FB71F868FFF761FA78637B6B002B10
:103E500002D16FF0010341E07B6BDB69FA7919460F
:103E6000B868FFF705FA38633B6B002B02D16FF09F
:103E7000010333E0FB7987F826303B6B9B681BB26C
:103E8000BB843B6B1B7987F827303B6B93F823305F
:103E900087F828303B6B1B69FB623B6CBB617B6C1A
:103EA000FB617B6B5B697B6107F124033B623B68D1
:103EB0001B78002B09D13B6BDA6907F1140311461B
:103EC0001846FFF7E0FA034608E03B6BD96907F1B3
:103ED000140001233A68FFF744FB034618463837BD
:103EE000BD4680BD80B586B000AFF860B9607A602D
:103EF000FB70F868FFF70AFA78617B69002B02D142
:103F00006FF0120325E07B69DB691B88C3F1200396
:103F10004FF0FF3222FA03F33B613B69DA437B68DF
:103F20001340002B02D06FF0010312E07B697A6826
:103F30001A617B69DB695B69002B09D07B69DB69EE
:103F40005B697A695269796810469847034600E0D0
:103F5000002318461837BD4680BD80B584B000AF39
:103F600078607868FFF7D2F9F860FB68002B02D11F
:103F70004FF0FF3311E0FB6800221A61FB68DB6938
:103F80009B69002B08D0FB68DB699B69FA68526962
:103F900010469847034600E0002318461037BD46F8
:103FA00080BD80B584B000AF786039607868FFF775
:103FB000ADF9F860FB68002B02D16FF0120304E04A
:103FC000FB681A693B681A60002318461037BD4623
:103FD00080BD80B489B000AF786039607B681B69B0
:103FE0003B610023FB6100237B610023FB7616E02D
:103FF0003B6903F00103002B0ED0FB7E83F001032D
:10400000DBB2002B02D00123FB7602E0FB69013317
:10401000FB617B6901337B613B695B083B613B6909
:10402000002BE5D17B68DB695968FA691346DB0030
:1040300013449B000B449B699B78DB08DBB2FB605D
:104040003A68FB68B2FBF3F27B69B2FBF3F3184604
:104050002437BD4680BC704780B586B000AF78601D
:1040600039607868FFF752F978617B695B6A3B6178
:104070003B69002B22D07B69DB69DB69002B1DD0FB
:104080003B691B683A689A4202D96FF00B0317E04C
:1040900039687869FFF79DFFF8607B69DB69DB6948
:1040A0007A6950693A695168FA689847B860BB689C
:1040B000002B01DABB6803E03B6801E06FF001030D
:1040C00018461837BD4680BD80B586B000AFF86091
:1040D000B9607A603B60F868FFF718F978617B692E
:1040E0005B6A3B613B69002B14D07A683B681A44D9
:1040F0003B691B689A4202D96FF00B030CE03B69E5
:104100005A687B6813443A681946B86807F018FD86
:104110003B6801E06FF0010318461837BD4680BDCB
:1041200080B586B000AF786039607868FFF7EEF848
:1041300078617B691B6A3B613B69002B22D07B69FC
:10414000DB691B6A002B1DD03B691B683A689A42E9
:1041500002D96FF00B0317E039687869FFF739FF70
:10416000F8607B69DB691B6A7A6950693A69516852
:10417000FA689847B860BB68002B01DABB6803E0B7
:104180003B6801E06FF0010318461837BD4680BD5B
:1041900080B586B000AFF860B9607A603B60F868BF
:1041A000FFF7B4F878617B691B6A3B613B69002BC0
:1041B00014D07A683B681A443B691B689A4202D95A
:1041C0006FF00B030CE03B695A687B6813443A6854
:1041D000B968184607F0B4FC3B6801E06FF00103D2
:1041E00018461837BD4680BD80B483B000AF7860F4
:1041F0007B68002B02D14FF0FF3307E0064B1B68B2
:104200005A697B681A60044B1B689B6918460C3717
:10421000BD4680BC704700BF8014042080B582B0CA
:1042200000AF78607B681B68184601F0C2F903464E
:1042300018460837BD4680BDF0B59FB006AFF860A0
:10424000B9607A603B60BB6FB3F1FF3F02D10023DE
:104250003B6501E0BB6F3B653B68002B02D107F17A
:1042600014033B600023FB653A6DFB6DD31A23EA10
:10427000E3731946BB6800937B68A24A386807F06D
:10428000B7FF0246FB6D1344FB65FB685B68002BC0
:1042900000F06C820023BB6561E2FB685968BA6D6F
:1042A0001346DB0013449B000B44FB6407F114032B
:1042B000F96C1846FEF778FFFB6D3A68D0183A6D36
:1042C000FB6DD31A23EAE373194607F114038E4AF0
:1042D00007F08EFF0246FB6D1344FB65FB6C1B6809
:1042E000002B11D0FB6D3A68D0183A6DFB6DD31AD4
:1042F00023EAE3731946FB6C1B68844A07F078FFD6
:104300000246FB6D1344FB65FB6D3A68D0183A6DAD
:10431000FB6DD31A23EAE3731946FB6C93F8203044
:10432000002B01D07A4B00E07A4B7B4A07F060FF0C
:104330000246FB6D1344FB65FB6C9B69002B2FD081
:10434000FB6D3A68D0183A6DFB6DD31A23EAE3731C
:104350009C46FB6C5969FB6C9B691B79002B01D057
:104360006E4B00E06E4BFA6C926912781446FA6C50
:10437000926952781546FA6C926992781646FA6CF0
:104380009269D278049203960295019400930B46A9
:10439000644A614607F02CFF0246FB6D1344FB653F
:1043A000FB6CDB69002B00F0C78100237B65B7E164
:1043B000FB6CD9697A6D13469B0013449B000B4438
:1043C000BB64FB6D3A68D0183A6DFB6DD31A23EAD3
:1043D000E3731946BB6C1B68534A07F009FF02469A
:1043E000FB6D1344FB65FB6C93F82330002B00F04E
:1043F000CD80BB6C1B7A032B00F27F8101A252F8A7
:1044000023F000BFCD440000754400003B44000091
:1044100015440000FB6D3A68D0183A6DFB6DD31A55
:1044200023EAE3731946BB6C1B68404A07F0E0FEC1
:104430000246FB6D1344FB655FE1FB6D3A68D018E3
:104440003A6DFB6DD31A23EAE3731946FB6C93F8BC
:104450002030002B01D0364A00E0364ABB6C1B6886
:1044600000931346344A07F0C3FE0246FB6D134423
:10447000FB6542E1FB6D3A68D0183A6DFB6DD31ACB
:1044800023EAE3731D46FB6C93F82030002B01D028
:10449000274C00E0274CFB6C1B791A46274B53F83E
:1044A0002230FA6C12791146244A52F82120B96C54
:1044B00009680291019200932346214A294607F098
:1044C00097FE0246FB6D1344FB6516E1FB6C93F807
:1044D000223083F00103DBB2002B02D06FF0150312
:1044E00010E2FB6D3A68D5183A6DFB6DD31A23EADA
:1044F000E3739C46FB6C93F82030002B22D00C4ECB
:1045000021E000BFEC400100104101002441010006
:10451000304101003841010040410100504101009B
:1045200054410100584101008C410100A4410100A7
:10453000B4410100B8410100BC410100E04201006A
:10454000D0410100A44EFB6C1B791A46A34B53F8D3
:104550002230FA6C9268F96C097908469F4951F843
:104560002010F86CC068BC6C24680494039002911D
:104570000192009333469A4A6146284607F038FE76
:104580000246FB6D1344FB6500BFB6E0BB6C1B7AB3
:10459000032B00F2B28001A252F823F0574600002C
:1045A0000D460000D3450000AD450000FB6D3A68A4
:1045B000D0183A6DFB6DD31A23EAE3731946BB6C2E
:1045C0001B68884A07F014FE0246FB6D1344FB6526
:1045D00093E0FB6D3A68D0183A6DFB6DD31A23EA6D
:1045E000E3731946FB6C93F82030002B01D07E4A10
:1045F00000E0794ABB6C1B68009313467B4A07F0C6
:10460000F7FD0246FB6D1344FB6576E0FB6D3A68EF
:10461000D0183A6DFB6DD31A23EAE3731C46FB6C8A
:1046200093F82030002B01D06F4900E06A49FB6C01
:104630001B791A46694B53F82230BA6C1268019202
:1046400000930B466A4A214607F0D2FD0246FB6DF5
:104650001344FB6551E0FB6C93F82230002B27D00C
:10466000FB6D3A68D0183A6DFB6DD31A23EAE373F9
:104670001D46FB6C93F82030002B01D05A4C00E013
:10468000554CFB6C1B791A46544B53F82230FA6C8C
:104690009268B96C09680291019200932346554AC9
:1046A000294607F0A5FD0246FB6D1344FB6523E098
:1046B000FB6D3A68D0183A6DFB6DD31A23EAE373A9
:1046C0001C46FB6C93F82030002B01D0464900E0DB
:1046D0004149FB6C1B791A46404B53F82230BA6CA7
:1046E0001268019200930B46414A214607F080FD73
:1046F0000246FB6D1344FB6500BFFB6D3A68D018A2
:104700003A6DFB6DD31A23EAE3733B4A194607F06F
:104710006FFD0246FB6D1344FB657B6D01337B65CA
:10472000FB6CD9697A6D13469B0013449B000B44C4
:104730001B68002B7FF43CAEFB6D3A68D0183A6DD5
:10474000FB6DD31A23EAE3732C4A194607F050FD98
:104750000246FB6D1344FB65BB6D0133BB65FB6813
:104760001B881A46BB6D9342FFF697ADFB689B68AA
:10477000002B2AD00023BB651CE0FB6D3A68D018E3
:104780003A6DFB6DD31A23EAE3731C46FB68996804
:10479000BA6D13469B0013449B000B441B68184AD8
:1047A000214607F025FD0246FB6D1344FB65BB6DFA
:1047B0000133BB65FB689968BA6D13469B001344CF
:1047C0009B000B441B68002BD7D1FB68DB68002BD8
:1047D00040D00023BB6532E0B8410100E042010057
:1047E000E8410100A4410100B4410100BC410100C5
:1047F000044201001842010030420100344201002D
:1048000040420100FB6D3A68D0183A6DFB6DD31A37
:1048100023EAE3731C46FB68D968BA6D13469B0014
:1048200013449B000B441B68384A214607F0E0FC08
:104830000246FB6D1344FB65BB6D0133BB65FB6832
:10484000D968BA6D13469B0013449B000B441B6848
:10485000002BD7D1FB685B6A002B03D1FB689B6AF6
:10486000002B0FD0FB6D3A68D0183A6DFB6DD31A50
:1048700023EAE373264A194607F0BAFC0246FB6DA9
:104880001344FB65FB681B69002B2AD00023BB6522
:104890001CE0FB6D3A68D0183A6DFB6DD31A23EA21
:1048A000E3731C46FB681969BA6D13469B001344F9
:1048B0009B000B441B68174A214607F099FC0246EF
:1048C000FB6D1344FB65BB6D0133BB65FB68196968
:1048D000BA6D13469B0013449B000B441B68002BCE
:1048E000D7D1FB6D3A68D0183A6DFB6DD31A23EA25
:1048F000E373094A194607F07BFC0246FB6D13443B
:10490000FB65FB6D18466437BD46F0BD584201009B
:1049100078420100A8420100C8420100B0B58CB045
:1049200002AFF860B9607A603B602821012006F090
:10493000F3FD03467B627B6A002B02D16FF00B0311
:104940007EE07B6A3A685A617B6A7A68DA607B6AE1
:10495000BA68DA617B6ABA6B5A627B6AFA6B1A626E
:104960007B6AD8697B6AD968FB681B6A1A464FF074
:10497000FF3300930023FFF75FFC03463B62FB68B5
:104980009A693B6A1344FB61FB685B69FA691146EB
:10499000184607F059FAB861BB69002B05D1786A4F
:1049A00006F034FE6FF00B034AE0FB681B691B68DE
:1049B000FA681269796A1046984778617B69002B1A
:1049C00007DA786A06F022FEB86906F01FFE7B69F6
:1049D00036E0FB68BA695A617B6AD8697B6AD96834
:1049E000FB681B6A1D46FB685A69FB68DB69D418C3
:1049F000FA69FB68DB69D31A009323462A46FFF75E
:104A00001BFC786AFB681B6A1A460F4907F036FCE4
:104A1000FB68DA693B6A1A44FB68DA61FB689A69E9
:104A20003B6A1A44FB689A61FB685B690749184650
:104A300007F0B8FCFB681B6A5A1CFB681A6200236B
:104A400018462837BD46B0BDD442010000070420F7
:104A500080B582B000AF786039607B683A681146F3
:104A6000184607F033FD034618460837BD4680BD9B
:104A700080B586B000AF786039603B68002B02D10A
:104A80006FF01503A8E04C21012006F045FD034618
:104A90007B617B69002B02D14FF0FF339CE0282122
:104AA000012006F039FD03463B613B69002B00F015
:104AB0008D803B697A695A607B69494A5A617B6992
:104AC000484A9A617B69484ADA617B69474A1A62B7
:104AD0007B69474ADA627B69464A1A637B69464AC0
:104AE0005A637B69454A9A637B69454A5A627B6986
:104AF000444A9A627B69444ADA637B69434A1A6092
:104B00007B69434A5A603B6940F23C429A613B6987
:104B10009B69184606F072FD03461A463B695A61C6
:104B20003B695B69002B48D03B695B693949184692
:104B300007F0AAFD3B695B693749184607F032FC6C
:104B40003B694FF48662DA613B681A783B691A72F6
:104B50003B681B78002B32D13B685A683B695A622C
:104B60007B692A4A1A607B69294A5A607B692B4A09
:104B70009A643B6910332A4A0321184601F082F9EE
:104B8000F860FB68002B1CDB786900F0EBFC024648
:104B90003B691A603B691B68002B07D07B683A6948
:104BA0001A60204A3B691360002315E000BF3B698F
:104BB0001B69184601F0ACF904E000BF02E000BF39
:104BC00000E000BF386906F021FD00E000BF786911
:104BD00006F01CFD4FF0FF3318461837BD4680BD68
:104BE000F53B0000BD3C0000853D0000353E000067
:104BF00059400000C94000002141000091410000DF
:104C0000E53E00005B3F0000A33F0000393100009B
:104C100071310000CC02042000070420E9410000AB
:104C2000514A00008014042080B485B000AF786041
:104C300039607B684FF4FA5202FB03F3094AA2FB86
:104C400003231B0CFB60FB68074AA2FB0323DB0862
:104C5000FA681344FB60FB6818461437BD4680BCF5
:104C6000704700BFC5B3A291CDCCCCCC80B586B087
:104C700000AFF860B9607A603B60FB681B683A6817
:104C800079681846FEF725F978617B69002B01DA0F
:104C90007B690AE03B684FF4E1311846FFF7C4FF37
:104CA00038613869FDF7F4FC002318461837BD4613
:104CB00080BD0000B0B5ADF5127D02AF3B1D1860A0
:104CC0003B461960274B07F50A741D460FCD0FC4EC
:104CD0002B682360244B07F505741D460FCD0FC4C8
:104CE0002B682360214A07F5037392E8030083E8E9
:104CF00003003B461B681B7A9B0007F510721344A8
:104D000053F8181C3B461B685B7A9B0007F5107232
:104D1000134453F82C2C3B461B689B7A9B0007F5E9
:104D20001070034453F8343C07F10C0001930092D7
:104D30000B464FF4E1320E4907F0A0FA0346C7F8DC
:104D40003C32D7F83C3207F10C023946381D09686D
:104D50000068FFF78BFF0346184607F51077BD463E
:104D6000B0BD00BF5C44010094440100B0440100A8
:104D70000443010080B5ADF5067D00AF07F10C03DB
:104D8000186007F1080319603B1D1A603B1D07F10D
:104D900014001A680B4907F071FA0346C7F8143279
:104DA000D7F8143207F1140207F1080107F10C00DB
:104DB00009680068FFF75AFF0346184607F50677AB
:104DC000BD4680BDB844010080B584B000AFF86036
:104DD000B9607A60BB68054A1A600449F868FEF752
:104DE000CDF8034618461037BD4680BD0C07042099
:104DF00080B588B000AF78600023FB610E4BBB61CB
:104E00000023BB60BB69FB60FB693B6107F10803E2
:104E100019467868FBF77DFA78617B69002B01DA27
:104E20007B6905E07B681B681846FBF7A3FA03461D
:104E300018462037BD4680BD843F0100F0B58DB0D7
:104E400002AF786039600023BB6007F108031846A1
:104E5000FFF7CEFF78627B6A002B01DA7B6A7FE086
:104E6000BA6807F10C0107F110031846FFF7ACFF11
:104E700078627B6A002B01DA7B6A71E0FA6807F1DD
:104E8000100311461846FFF715FF78627B6A002B66
:104E900001DA7B6A64E000233B753B69BB6107F183
:104EA000140207F11C0311461846FFF7E1FD786272
:104EB0007B6A002B48DB00233B623BE0F8693A6ADF
:104EC00013469B0013449B001A467B6813449C685E
:104ED0003A6A13469B0013449B001A467B681344AE
:104EE0001D683A6A13469B0013449B001A467B6870
:104EF00013445E683A6A13469B0013449B001A46AB
:104F00007B681344D9683A6A13469B0013449B009C
:104F10001A467B6813441B690193009133462A4665
:104F20002146FFF7FBFC78627B6A002B0EDB3B6AB5
:104F300001333B623A6A3B689A42BFDBFB69184621
:104F4000FFF76CF97862F9E700BF00E000BFF9688D
:104F500007F110037A6A1846FFF70CFF78627B6A44
:104F600018462C37BD46F0BD80B58EB004AFF86052
:104F7000B9601346FB71002387F82330002387F8BC
:104F80002230002387F821302021B86807F02AFA60
:104F900003463B613B69002B02D16FF01503B0E083
:104FA0003B6900221A70BB68FB613B690133BB603F
:104FB00006225649B86807F0F3FB0346002B06D1DA
:104FC000012387F82330BB680633BB602EE007223D
:104FD0004F49B86807F0E4FB0346002B09D10123D1
:104FE00087F82330012387F82230BB680733BB6082
:104FF0001CE006224749B86807F0D2FB0346002BA5
:1050000006D1012387F82130BB680633BB600DE071
:1050100007224149B86807F0C3FB0346002B05D1BE
:10502000022387F82130BB680733BB6097F8233031
:10503000002B14D02021B86807F0D4F903463B6157
:105040003B69002B02D16FF015035AE03B69002247
:105050001A70BB687B623B690133BB6001E00023CF
:105060007B622021B86807F0BDF903463B613B69CC
:10507000002B14BF01230023DBB21A46FB799A42AE
:1050800002D06FF015033CE0BB68BB61FB79002BDD
:1050900012D03B6900221A703B690133BB6007F1F3
:1050A00010030A221946B86807F0A2FC78613B6930
:1050B000BA689A4212D00EE097F8222097F8213071
:1050C0000193BB69009313467A6AF969F86800F0A6
:1050D0007AFB002315E07B69002B02DA6FF01503E1
:1050E0000FE07B6997F8221097F821200292019334
:1050F000BB6900930B467A6AF969F86800F0A5FB72
:10510000002318462837BD4680BD00BFE04401009B
:10511000E8440100F0440100F844010080B58AB081
:1051200002AF786039600023BB610023FB77202148
:10513000386807F057F90346FB60FB68002B02D183
:105140006FF0150346E0FB6800221A703B687B6134
:10515000FB6801333B6007F10C030A2219463868EB
:1051600007F046FC3861FB683A689A4206D0FB6853
:105170001B78202B02D13B69002B02DA6FF015035C
:1051800028E0FB6801333B6007F10C03102219464D
:10519000386807F0FBFCB861FB681B78202B10D146
:1051A000FB6801333B6006220C49386807F0F8FAC7
:1051B0000346002B02D10123FB7702E06FF01503B9
:1051C00008E03A69FB7F0093BB697969786800F071
:1051D0007FFB002318462037BD4680BD00450100F7
:1051E00080B584B000AF786039600A220021386849
:1051F00007F0CCFCF860F968786800F0DBFC034647
:1052000018461037BD4680BD80B586B000AF7860C7
:1052100039602021386807F0E5F878617B69002B58
:1052200002D16FF0150322E07B6900221A703B68FF
:105230003B617B6901333B600E220F49386807F000
:10524000AFFA0346002B10D13B680E333B600A22B5
:105250000021386807F0CCFB0346FB60FA68396927
:10526000786800F0C2FC034601E06FF015031846B1
:105270001837BD4680BD00BF0845010080B586B027
:1052800000AF786039602021386807F0ABF803463A
:10529000FB60FB68002B02D16FF0150324E0FB6874
:1052A00000221A703B687B61FB6801333B6007F1A9
:1052B0000C030A221946386807F09AFB3861FB682C
:1052C0003A689A4206D0FB681B78002B02D13B69F2
:1052D000002B02DA6FF0150306E03B691A46796984
:1052E000786800F035FB034618461837BD4680BD88
:1052F00080B586B000AF786039602021386807F04B
:1053000071F80346FB60FB68002B02D16FF01503B8
:1053100024E0FB6800221A703B687B61FB68013364
:105320003B6007F10C030A221946386807F060FB5E
:105330003861FB683A689A4206D0FB681B78002BFC
:1053400002D13B69002B02DA6FF0150306E03B69DE
:105350001A467969786800F089FB034618461837C1
:10536000BD4680BD80B58CB002AF7860396002E088
:105370003B6801333B603B681B780A2BF8D03B68E5
:105380001B780D2BF4D03B681B78002B01D1002338
:10539000C7E008226549386807F002FA0346002B87
:1053A00012D107F10800624B0193012300930023FF
:1053B000604A202106F01CFF07F1080319467868AF
:1053C00000F0B1F90023ACE006225B49386807F031
:1053D000E7F90346002B04D1786800F0D1F90023E7
:1053E0009FE005225549386807F0DAF90346002B9B
:1053F00008D13B680533002219467868FFF7B4FDF1
:1054000003468EE006224E49386807F0C9F9034684
:10541000002B08D13B680633012219467868FFF754
:10542000A3FD03467DE005224649386807F0B8F938
:105430000346002B07D13B68053319467868FFF710
:105440006DFE03466DE006223F49386807F0A8F973
:105450000346002B07D13B6806331946786800F0F5
:1054600050FA00235DE008223849386807F098F9BF
:105470000346002B07D13B68083319467868FFF7CD
:1054800037FF03464DE008223149386807F088F9B4
:105490000346002B07D13B68083319467868FFF7AD
:1054A0009FFE03463DE009222A49386807F078F953
:1054B0000346002B07D13B68093319467868FFF78C
:1054C000DDFE03462DE004222349386807F068F921
:1054D0000346002B04D1786800F026FA034620E04A
:1054E00007221E49386807F05BF90346002B06D1F6
:1054F0006FF01201786800F029F9034611E00322E9
:105500001749386807F04CF90346002B07D13B6870
:10551000043319467868FFF777FE034601E06FF021
:10552000150318462837BD4680BD00BF1845010049
:1055300025E44004204501003045010038450100C4
:105540004045010048450100504501005845010013
:1055500064450100704501007C450100844501005F
:105560008C45010080B584B000AF7860082006F05B
:1055700045F80346FB60FB68002B01D1002314E0D3
:105580004FF4805006F03AF803461A46FB685A601A
:10559000FB685B68002B04D1F86806F037F800233D
:1055A00003E0FB687A681A60FB6818461037BD464E
:1055B00080BD80B5A4B000AF786007F10C038022F5
:1055C0001946786800F031F8C7F88C00D7F88C30AD
:1055D000002B02DAD7F88C3012E007F10C031946E1
:1055E0007868FFF7BFFEC7F88C00D7F88C30002B27
:1055F00004DAD7F88C10786800F0A8F8D7F88C3067
:1056000018469037BD4680BD80B584B000AFF860C5
:10561000B9607A60FB681B681B687968B86898474E
:10562000034618461037BD4680BD80B588B000AF30
:10563000F860B9607A600023FB76FB681B689B68A2
:10564000002B07D0FB681B689B687968B86898478F
:10565000034641E00023FB6122E0FB681B681B68F6
:1056600007F1130201211046984778617B69002BEE
:1056700002DC6FF004032FE0BA68FB691344FA7C84
:105680001A70BA68FB6913441B780A2B02D00123F5
:10569000FB7602E0FB7E002B08D1FB690133FB6146
:1056A0007B68013BFA699A42D7D300E000BFFB7EDA
:1056B00083F00103DBB2002B04D17B68013BFA6964
:1056C0009A4202D16FF0040306E0FB69013BBA681D
:1056D000134400221A70FB6918462037BD4680BD6E
:1056E00080B582B000AF78600B46FB707B681B68AA
:1056F0005B68FA1C01211046984703461846083794
:10570000BD4680BD80B584B000AFF860B9607A60F6
:10571000FB681B685B687968B86898470346184659
:105720001037BD4680BD80B582B000AF786039606B
:10573000386807F007F803461A4639687868FFF7B3
:10574000E1FF034618460837BD4680BD80B586B0E8
:1057500000AF7860396007F108003B68074A102104
:1057600006F046FD07F1080319467868FFF7DBFFEE
:10577000034618461837BD4680BD00BF904501005E
:1057800080B584B000AF78607B681B689B6C07F1C4
:10579000080210469847BB68184606F0D3FFF86029
:1057A000FB6819467868FFF7D1FFBB68FA681946AD
:1057B0007868FFF7A7FF0A217868FFF791FF00BF1D
:1057C0001037BD4680BD90B589B002AFF860B960B2
:1057D0007A60FB707B68002B10D0FB681B68DC696B
:1057E000FB685B68F9784FF4805201920093BB6AC2
:1057F0000A467968B868A04778610DE0FB681B68C5
:105800005C69FB685A6897F82C3000934FF480531A
:10581000B96AB868A04778617969F868FFF796FFB8
:105820007B69002B0DDDFB685A687B6913440A22F3
:105830001A70FB6859687B6901331A46F868FFF7EC
:1058400061FF00BF1C37BD4690BD90B589B002AF67
:10585000F860B9607A60FB70FB6AB3F5805F02D3D1
:1058600040F6FF73FB62FB685B68FA6A1946F868EA
:10587000FFF7CAFEFB685A68FB6A134400221A70DD
:105880007B68002B0FD0FB681B681C6AFB685B6899
:10589000F978FA6A01920093BB6A0A467968B86897
:1058A000A04778610CE0FB681B689C69FB685A683C
:1058B00097F830300093FB6AB96AB868A0477861FE
:1058C0007969F868FFF742FF00BF1C37BD4690BDFD
:1058D00090B587B000AFF860B9607A603B60FB6854
:1058E0001B685C6A97F828303A687968B868A047FE
:1058F00078617969F868FFF729FF00BF1C37BD465A
:1059000090BD80B584B000AF786039607B681B685B
:105910009B6A38689847F860F9687868FFF716FF5F
:1059200000BF1037BD4680BD80B582B000AF786043
:105930007B681B681B69002B05D07B681B681B6993
:105940009847034600E0002318460837BD4680BD4F
:1059500090B5C9B000AF07F10C03186007F1080358
:1059600019603B1D1A600023C7F81C313B1D1B68E2
:10597000C7F814310023C7F818313B1D1A6807F126
:105980000C0311461868FFF7E1FE41E03B1D1B6860
:10599000B3F5807F28BF4FF48073C7F8103107F14B
:1059A000100107F10C03D7F810211868FFF72CFE3F
:1059B000C7F81801D7F81831002B26DD07F10C03C2
:1059C0001B681B689C6BD7F8183107F1100107F1B1
:1059D0000800D7F81C210068A047C7F81801D7F8BD
:1059E0001831D7F81C211344C7F81C31D7F81831E7
:1059F000002B02DAD7F8183133E0D7F818213B1D15
:105A0000391D09688A1A1A6002E0D7F8183128E0AF
:105A10003B1D1B68002BB9D107F10C031B681B68E9
:105A20005B6B002B13D007F10C031B681B685B6BCF
:105A300007F10802D7F8141110689847C7F8180141
:105A4000D7F81831002B02DAD7F8183109E0D7F867
:105A5000142107F10C0311461868FFF777FED7F8F9
:105A60001831184607F59277BD4690BD90B5CDB078
:105A700000AF07F10C03186007F1080319603B1D24
:105A80001A60012387F82B310023C7F8243107F16E
:105A90000C031B681B68DB6B07F11C0107F1080294
:105AA00010689847C7F82C01D7F82C31002B02DA80
:105AB000D7F82C3177E007F10C031B681B68DB6A11
:105AC000002B6AD007F10C031B681B68DB6A391DC9
:105AD00007F10802096810689847C7F82C01D7F841
:105AE0002C31002B59DAD7F82C315CE03B1D1B68B8
:105AF000B3F5807F28BF4FF48073C7F8203107F1DA
:105B00000C031B681B681C6B07F1200107F10800E0
:105B1000D7F82031D7F824210068A047C7F82C0116
